:100000000C942A000C943C000C943C000C943C0092
:100010000C943C000C943C000C943C000C943C0070
:100020000C943C000C943C000C943C000C943C0060
:100030000C943C000C943C000C943C000C943C0050
:100040000C943C000C943C000C943C000C943C0040
:100050000C943C0011241FBECFE5D8E0DEBFCDBF1D
:1000600020E0A0E6B0E001C01D92A236B207E1F7A1
:100070000E943E000C9471000C94000087B38FEF37
:1000800087BB88BB8AB38C6D8ABB80E68BBB0000C4
:10009000809160009091610001969093610080933F
:1000A000600000008BB384608BBB000086B381606E
:1000B00088BB00002FEF84E39CE0215080409040FB
:1000C000E1F700C0000086B38E7F88BB00002FE7F9
:1000D00088E391E0215080409040E1F700C00000AB
:0600E000D6CFF894FFCF1B
:00000001FF
