S01C000048656C6C6F5F576F726C645F313630325F4C43442E7372656353
S11300000C945A000C9482000C9482000C9482008C
S11300100C9482000C9482000C9482000C94820054
S11300200C9482000C9482000C9482000C94820044
S11300300C9482000C9482000C9482000C94820034
S11300400C940F030C9482000C9419020C944B0230
S11300500C9482000C9482000C9482000C94820014
S11300600C94B90C0C9482000000000800020100FA
S1130070000304070000000000000000010204085F
S113008010204080010204081020010204081020FE
S1130090040404040404040402020202020203032A
S11300A00303030300000000250028002B00CD00FB
S11300B07B02130B11241FBECFEFD8E0DEBFCDBFF0
S11300C012E0A0E0B1E0E0EDFCE102C005900D9289
S11300D0AC38B107D9F726E0ACE8B2E001C01D9214
S11300E0A836B207E1F710E0CAE5D0E004C02197D2
S11300F0FE010E94600EC735D107C9F70E94A9020C
S11301000C94660E0C94000026E040E855E260E092
S113011070E088EF94E00E94B0018CE892E00E94C5
S1130120110A8CE892E00E941D098CE892E00E947A
S1130130630968EE73E080E090E00E947E0369E169
S113014072E08CE892E00E94F70266E272E088EFC7
S113015094E00C94FD0268EE73E080E090E00E946D
S11301607E0341E060E08CE892E00E94710965E35F
S113017072E08CE892E00E94F70268EE73E080E09F
S113018090E00E947E038CE892E00E94630960E4A0
S113019072E088EF94E00C94FD0222E040E167E213
S11301A08CE892E00C940004FC01918D228D892F3F
S11301B090E0805C9F4F821B91098F73992708956B
S11301C0FC01918D828D981731F0828DE80FF11D1D
S11301D0858D90E008958FEF9FEF0895FC01918D38
S11301E0828D981761F0828DDF01A80FB11D5D9695
S11301F08C91928D9F5F9F73928F90E008958FEF03
S11302009FEF0895FC01538D448D252F30E0842FFA
S113021090E0821B930B541710F0CF96089501972A
S1130220089581E792E0892B49F080E090E0892BE2
S113023029F00E94710281110C9400000895FC01C0
S1130240848DDF01A80FB11DA35ABF4F2C91848D5B
S113025090E001968F739927848FA689B7892C9390
S1130260A089B1898C91837080648C93938D848DE3
S1130270981306C00288F389E02D80818F7D8083E6
S11302800895EF92FF920F931F93CF93DF93EC01A6
S113029081E0888F9B8D8C8D981305C0E889F9893E
S11302A0808185FD26C0F62E0B8D10E00F5F1F4F59
S11302B00F731127E02E8C8DE8120CC00FB607FCCB
S11302C0FACFE889F989808185FFF5CFCE010E94B4
S11302D01F01F1CF8B8DFE01E80FF11DE35AFF4F93
S11302E0F0829FB7F8940B8FEA89FB898081806242
S11302F00AC09FB7F894EE89FF896083E889F98979
S113030080818370806480839FBF81E090E0DF916F
S1130310CF911F910F91FF90EF900895CF93DF93AA
S1130320EC01888D8823C9F0EA89FB89808185FDE9
S113033005C0A889B9898C9186FD0FC00FB607FC4A
S1130340F5CF808185FFF2CFA889B9898C9185FF8B
S1130350EDCFCE010E941F01E7CFDF91CF91089529
S1130360CF92DF92EF92FF921F93CF93DF93EC0132
S11303706A017B01122FE889F98982E080834115A3
S1130380514E61057105B1F060E079E08DE390E0D4
S1130390A70196010E943E0EDA01C9010197A10945
S11303A0B109B695A795979587959C01211580E18C
S11303B03807A8F0E889F989108260E874E88EE1CA
S11303C090E0A70196010E943E0EDA01C90101974F
S11303D0A109B109B695A795979587959C01EC85D8
S11303E0FD853083EE85FF852083188EEC89FD8999
S11303F01083EA89FB89808180618083EA89FB8993
S1130400808188608083EA89FB8980818068808319
S1130410EA89FB8980818F7D8083DF91CF911F9151
S1130420FF90EF90DF90CF90089580E090E00895E2
S113043008951F920F920FB60F9211242F938F934A
S11304409F93EF93FF93E0910805F0910905808154
S1130450E0910E05F0910F0582FD12C0908180910C
S113046011058F5F8F7320911205821751F0E0916F
S11304701105F0E0E850FB4F958F8093110501C002
S11304808081FF91EF919F918F912F910F900FBEDB
S11304900F901F9018951F920F920FB60F92112470
S11304A02F933F934F935F936F937F938F939F9378
S11304B0AF93BF93EF93FF9388EF94E00E941F01E3
S11304C0FF91EF91BF91AF919F918F917F916F9128
S11304D05F914F913F912F910F900FBE0F901F90FE
S11304E0189588EF94E00E94D40021E0892B09F448
S11304F020E0822F0895E8EFF4E01382128288EE60
S113050093E0A0E0B0E084839583A683B78381E57C
S113051092E09183808385EC90E09587848784ECD6
S113052090E09787868780EC90E0918B808B81ECBC
S113053090E0938B828B82EC90E0958B848B86EC9D
S113054090E0978B868B118E128E138E148E0895E5
S113055008950E94C5030E94A8020E948400C1E17C
S1130560D1E00E94AB002097E1F30E941101F9CF82
S1130570CF92DF92EF92FF920F931F93CF93DF936B
S11305806C017A018B01C0E0D0E0CE15DF0581F06B
S1130590D8016D918D01D601ED91FC910190F0810E
S11305A0E02DC6010995892B11F02196EECF7E012D
S11305B0C701DF91CF911F910F91FF90EF90DF90D2
S11305C0CF9008956115710579F0FB010190002029
S11305D0E9F73197AF01461B570BDC01ED91FC9114
S11305E00280F381E02D099480E090E008950C945A
S11305F0E2026FE572E00C94E2020F931F93CF9333
S1130600DF93EC010E94E2028C01CE010E94F90208
S1130610800F911FDF91CF911F910F9108951F9229
S11306200F920FB60F9211242F933F938F939F93A2
S1130630AF93BF938091960590919705A0919805EB
S1130640B09199053091950523E0230F2D3720F4BF
S11306500196A11DB11D05C026E8230F0296A11D18
S1130660B11D209395058093960590939705A093CB
S11306709805B093990580919A0590919B05A09156
S11306809C05B0919D050196A11DB11D80939A050D
S113069090939B05A0939C05B0939D05BF91AF914A
S11306A09F918F913F912F910F900FBE0F901F90AC
S11306B018953FB7F89480919A0590919B05A09165
S11306C09C05B0919D0526B5A89B05C02F3F19F048
S11306D00196A11DB11D3FBFBA2FA92F982F8827BE
S11306E0820F911DA11DB11DBC01CD0142E0660F19
S11306F0771F881F991F4A95D1F708958F929F926B
S1130700AF92BF92CF92DF92EF92FF926B017C0186
S11307100E9459034B015C01C114D104E104F104AA
S113072001F10E94170B0E945903DC01CB018819C7
S11307309909AA09BB09883E9340A105B10560F354
S113074021E0C21AD108E108F10888EE880E83E09E
S1130750981EA11CB11CC114D104E104F10419F7C1
S1130760DBCFFF90EF90DF90CF90BF90AF909F9042
S11307708F9008958230910538F0880F991F880F63
S1130780991F05970197F1F70895789484B58260CD
S113079084BD84B5816084BD85B5826085BD85B521
S11307A0816085BDEEE6F0E0808181608083E1E8D0
S11307B0F0E0108280818260808380818160808308
S11307C0E0E8F0E0808181608083E1EBF0E080810B
S11307D084608083E0EBF0E0808181608083EAE7DD
S11307E0F0E0808184608083808182608083808166
S11307F0816080838081806880831092C100089525
S11308002F923F924F925F926F927F928F929F921C
S1130810AF92BF92CF92DF92EF92FF920F931F930A
S1130820CF93DF93CDB7DEB7AF970FB6F894DEBFA3
S11308300FBECDBF9FA78EA76BA74CA72DA7DC012A
S113084013961C921E92129782E792E011969C9343
S11308508E931D961C921E921C9784EF91E01F9616
S11308609C938E931E9728E0CD014096FC01722E36
S113087011927A94E9F738E0E0E0F1E0AEA5BFA583
S1130880589601900D923A95E1F738E0E8E0F1E0EE
S1130890AEA5BFA5909601900D923A95E1F738E088
S11308A0E0E1F1E0AEA5BFA5989601900D923A95CE
S11308B0E1F738E0E8E1F1E0AEA5BFA5D0960190FC
S11308C00D923A95E1F738E0E0E2F1E0AEA5BFA57C
S11308D0D89601900D923A95E1F738E0E8E2F1E01C
S11308E0AEA5BFA5A05CBF4F01900D923A95E1F76C
S11308F04EA55FA5485B5F4F5C834B8338E0E0E324
S1130900F1E0DA0101900D923A95E1F76EA57FA529
S1130910605B7F4F7E836D8338E0E8E3F1E0DB01C9
S113092001900D923A95E1F7AEA5BFA5A85ABF4F25
S1130930B887AF8338E0E0E4F1E001900D923A9596
S1130940E1F74EA45FA4B0E64B0E511C38E0E8E496
S1130950F1E0D20101900D923A95E1F78EA49FA4A3
S1130960E8E68E0E911C38E0E0E5F1E0D401019058
S11309700D923A95E1F7AEA4BFA4F0E7AF0EB11C17
S113098038E0E8E5F1E0D50101900D923A95E1F700
S1130990CEA4DFA438E7C30ED11C38E0E0E6F1E0D2
S11309A0D60101900D923A95E1F72EA43FA440E8B8
S11309B0240E311C38E0E8E6F1E0D10101900D92FB
S11309C03A95E1F76EA57FA568577F4F7A876987C7
S11309D038E0E0E7F1E0DB0101900D923A95E1F7B0
S11309E0AEA5BFA5A057BF4FBA8BA98B38E0E8E7E7
S11309F0F1E001900D923A95E1F7EEA5FFA5E856D6
S1130A00FF4FFE8BED8B38E0E0E8F1E0AD89BE8965
S1130A1001900D923A95E1F74EA55FA540565F4FC0
S1130A205C874B8738E0E8E8F1E0DA0101900D9249
S1130A303A95E1F76EA57FA568557F4F788F6F8B48
S1130A4038E0E0E9F1E0DB0101900D923A95E1F73D
S1130A50AEA5BFA5A055BF4FBA8FA98F1D922A95E9
S1130A60E9F7EEA5FFA5EA54FF4F2FE12083EEA599
S1130A70FFA5E854FF4FFC8FEB8F28E0E8E9F1E095
S1130A80AB8DBC8D01900D922A95E1F72EA53FA563
S1130A9020543F4F3E8F2D8F28E0E0EAF1E0AD8DEA
S1130AA0BE8D01900D922A95E1F74EA55FA548539E
S1130AB05F4F58A34F8F28E0E8EAF1E0DA01019094
S1130AC00D922A95E1F76EA57FA560537F4F7AA317
S1130AD069A328E0E0EBF1E0DB0101900D922A9597
S1130AE0E1F7AEA5BFA5A852BF4FBCA3ABA328E0B6
S1130AF0E8EBF1E001900D922A95E1F7EEA4FFA452
S1130B00B0EEEB0EF11C28E0E0ECF1E0D70101902F
S1130B100D922A95E1F7EEA5FFA5E851FF4FFEA33C
S1130B20EDA328E0E8ECF1E0ADA1BEA101900D92A7
S1130B302A95E1F74EA55FA540515F4F28E0E0ED0F
S1130B40F1E0DA0101900D922A95E1F72EA53FA577
S1130B5028503F4F38A72FA328E0E8EDF1E0AFA1DC
S1130B60B8A501900D922A95E1F76EA57FA573951E
S1130B707AA769A728E0E0EEF1E0DB0101900D928D
S1130B802A95E1F70EA51FA5085F1E4F28E0E8EEA1
S1130B90F1E0D80101900D922A95E1F76EA57FA5A9
S1130BA0605F7E4F28E0E0EFF1E0DB0101900D9201
S1130BB02A95E1F72EA53FA5285E3E4FE8E06E2E6C
S1130BC0E8EFF1E0D90101900D926A94E1F7AEA546
S1130BD0BFA55896BA83A983EEA5FFA5E05EFE4F94
S1130BE0B183A083EEA5FFA5EE5DFE4FA985BA856E
S1130BF0B183A083EEA5FFA5B096FE87ED87EEA591
S1130C00FFA5EC5DFE4FAD85BE85B183A083EEA547
S1130C10FFA5B896F88BEF87EEA5FFA5EA5DFE4F1A
S1130C20AF85B889B183A083EEA5FFA5E85DFE4F2B
S1130C30A989BA89B183A0836EA47FA4B0E36B0EA3
S1130C40711CEEA5FFA5E65DFE4F71826082EEA5E4
S1130C50FFA5F896FA8BE98BEEA5FFA5E45DFE4FA0
S1130C60A989BA89B183A083EEA5FFA5E05CFF4FF3
S1130C70FC8BEB8BEEA5FFA5E25DFE4FAB89BC8937
S1130C80B183A083EEA5FFA5E05DFE4FAD89BE89CB
S1130C90B183A083EEA5FFA5EE5CFE4FAB81BC81C2
S1130CA0B183A083EEA5FFA5EC5CFE4FAB85BC85AC
S1130CB0B183A083EEA5FFA5EA5CFE4FAD81BE81A2
S1130CC0B183A083EEA5FFA5E85CFE4FAF81B88594
S1130CD0B183A083EEA5FFA5E65CFE4FAF89B88D76
S1130CE0B183A083EEA5FFA5E45CFE4F5182408250
S1130CF0EEA5FFA5E25CFE4F91828082EEA5FFA5E2
S1130D00E05CFE4FB182A082EEA5FFA5EE5BFE4F34
S1130D10D182C082EEA5FFA5EC5BFE4F318220821A
S1130D20EEA5FFA5EA5BFE4FABA1BCA1B183A083F6
S1130D30EEA5FFA5E85BFE4FA9A5BAA5B183A083E4
S1130D40EEA5FFA5E65BFE4FF182E082EEA5FFA5CE
S1130D50E45BFE4F11830083EEA5FFA5E25BFE4F2B
S1130D60ADA1BEA1B183A083EEA5FFA5E05BFE4FBC
S1130D7071836083EEA5FFA5EE5AFE4F5183408335
S1130D80EEA5FFA5EC5AFE4F31832083EEA5FFA507
S1130D90EA5AFE4F2B8D3C8D31832083EEA5FFA5AF
S1130DA0E85AFE4F91838083EEA5FFA5E65AFE4FD5
S1130DB091838083EEA5FFA5E45AFE4F918380833F
S1130DC0EEA5FFA5E25AFE4F4D8D5E8D5183408303
S1130DD0EEA5FFA5E05AFE4F6F8D78A17183608365
S1130DE0EEA5FFA5EE59FE4F91838083EEA5FFA5E6
S1130DF0EC59FE4F91838083EEA5FFA5EA59FE4F7F
S1130E0091838083EEA5FFA5E859FE4F29A13AA15D
S1130E1031832083EEA5FFA5E659FE4F498D5A8DF7
S1130E2051834083EEA5FFA5E459FE4F918380834F
S1130E30EEA5FFA5E259FE4F6FA178A571836083EB
S1130E40EEA5FFA5E059FE4F24E5DF011D922A958A
S1130E50E9F7EEA5FFA5EC56FE4F28E030E031831C
S1130E602083EEA5FFA5E856FE4F31832083EEA52F
S1130E70FFA5E656FE4F41E050E051834083EEA5C6
S1130E80FFA5E456FE4F31832083AEA5BFA5A2562D
S1130E90BE4FE4E1F0E0ED93FC936EA57FA56855A9
S1130EA07E4FADE0B0E0FB01B183A0830EA51FA58A
S1130EB006551E4F64E070E0F801718360830EA54F
S1130EC01FA504551E4FF801B183A0830EA51FA5CD
S1130ED002551E4FF5E0EF2EF12CF801F182E0826D
S1130EE00EA51FA500551E4FF801B183A083AEA522
S1130EF0BFA5AE54BE4FE4E1F0E0ED93FC93AEA584
S1130F00BFA5A454BE4F02E110E00D931C93AEA5FF
S1130F10BFA5A254BE4FED93FC93EEA5FFA5EC53E1
S1130F20FE4F91838083EEA5FFA5EA53FE4FA9816E
S1130F30BA81B183A083EEA5FFA5E853FE4FA9852E
S1130F40BA85B183A083EEA5FFA5E653FE4F918336
S1130F508083EEA5FFA5E453FE4FAD85BE85B18326
S1130F60A083EEA5FFA5E253FE4F91838083EEA5F7
S1130F70FFA5E053FE4F91838083EEA5FFA5EE52BB
S1130F80FE4FAF85B889B183A083EEA5FFA5EC52CF
S1130F90FE4F71826082EEA5FFA5EA52FE4F918357
S1130FA08083EEA5FFA5E852FE4F91838083EEA5D2
S1130FB0FFA5E652FE4F91838083EEA5FFA5E45280
S1130FC0FE4F91838083EEA5FFA5E252FE4F9183ED
S1130FD08083EEA5FFA5E052FE4F91838083EEA5AA
S1130FE0FFA5EE51FE4F91838083EEA5FFA5EC5142
S1130FF0FE4FA989BA89B183A083EEA5FFA5EA5162
S1131000FE4FAB89BC89B183A083EEA5FFA5E8514F
S1131010FE4F91838083EEA5FFA5E651FE4F8B81A1
S11310209C8191838083EEA5FFA5E451FE4F8B85BF
S11310309C8591838083EEA5FFA5E251FE4F8D81AF
S11310409E8191838083EEA5FFA5E051FE4F8F81A1
S1131050988591838083EEA5FFA5EE50FE4F5182C3
S11310604082EEA5FFA5EC50FE4F91828082EEA552
S1131070FFA5EA50FE4FB182A082EEA5FFA5E8507D
S1131080FE4FD182C082EEA5FFA5E650FE4F31820D
S11310902082EEA5FFA5E450FE4F80E7DF011D92FC
S11310A08A95E9F7EEA5FFA5E85FFD4F51834083DC
S11310B0EEA5FFA5E65FFD4F83E190E09183808379
S11310C0EEA5FFA5E05FFD4F71836083EEA5FFA54C
S11310D0EE5EFD4FA6E1B0E0B183A083EEA5FFA5CF
S11310E0EC5EFD4F71836083EEA5FFA5EA5EFD4FC4
S11310F06BE170E071836083EEA5FFA5E05EFD4FB8
S113110031832083EEA5FFA5EE5DFD4F518340831F
S1131110EEA5FFA5EC5DFD4F31832083EEA5FFA571
S1131120EA5DFD4F40E150E051834083EEA5FFA509
S1131130E85DFD4F31832083EEA5FFA5E65DFD4FFD
S113114041E150E051834083EEA5FFA5E45DFD4FEE
S113115031832083EEA5FFA5E25DFD4F918380835B
S1131160EEA5FFA5E05DFD4F31832083EEA5FFA52D
S1131170EE5CFD4FA9E1B0E0B183A083EEA5FFA52D
S1131180EC5CFD4F31832083EEA5FFA5EA5CFD4FA7
S1131190AAE1B0E0B183A083EEA5FFA5E85CFD4F12
S11311A031832083EEA5FFA5E65CFD4F7183608348
S11311B0EEA5FFA5EC5BFD4F51834083EEA5FFA593
S11311C0EA5BFD4F918380837BA4EEA5FFA5748227
S11311D03CA531874DA542871386AF960FB6F89488
S11311E0DEBF0FBECDBFDF91CF911F910F91FF9056
S11311F0EF90DF90CF90BF90AF909F908F907F90B3
S11312006F905F904F903F902F9008951F93CF93CE
S1131210DF93EC01162F6C818EE995E00E94F30AAE
S11312206B85612B8EE995E00E94A20A8EE995E018
S1131230DF91CF911F910C94100B28E0FC012387C0
S113124060E00C9406090F931F93CF938C01C62F73
S113125064600E94060981E090E00E94BA036C2F4A
S11312606B7FC8010E94060982E390E0CF911F9131
S11312700F910C94BA031F93CF93DF93EC01162FB5
S11312800E940609612FCE01DF91CF911F910C942A
S113129023090F931F93CF93DF938C01C62FD42F71
S11312A0607F642B0E943B0980E1C89FB001112438
S11312B06D2BC801DF91CF911F910F910C943B09C5
S11312C040E00C94490961E00E94600980ED97E0D8
S11312D00C94BA0362E00E94600980ED97E00C94DC
S11312E0BA03CF93DF93CDB7DEB728970FB6F89440
S11312F0DEBF0FBECDBF9C0188E0E1E1F2E0DE017C
S1131300119601900D928A95E1F7F9018085841771
S113131010F44FEF480FFE013196E40FF11DE40F76
S1131320F11D9081690F6068C90128960FB6F89481
S1131330DEBF0FBECDBFDF91CF910C946009FC01DD
S11313406681262F246026836C600C94600941E03A
S11313500E94490981E090E00895CF93DF93EC0166
S1131360423018F08D8188608D834887222329F0CC
S1131370413019F48D8184608D8362E370E080E0F4
S113138090E00E947E036B85CE010E94060968EE00
S113139073E080E090E00E947E0360E3CE010E944F
S11313A03B0984E991E10E94BA0360E3CE010E9403
S11313B03B0984E991E10E94BA0360E3CE010E94F3
S11313C03B0986E990E00E94BA0360E2CE010E94E4
S11313D03B096D816062CE010E94600984E08E83C6
S11313E0CE010E949F09CE010E94630982E08F838F
S11313F066E0CE010E946009CE01DF91CF910C948A
S11314006A09CF93DF93EC018EE995E00E94E10A2B
S11314101D8220E04A856985CE01DF91CF910C942D
S1131420AD090C94010A8091D20590E02091D30576
S1131430821B910908959091D3058091D205981744
S113144050F4E92FF0E0EC52FA4F208130E09F5F36
S11314509093D30502C02FEF3FEFC9010895E091A7
S1131460D3058091D205E81730F4F0E0EC52FA4F3E
S1131470808190E008958FEF9FEF08950895CF93B2
S1131480DF93EC01E091AA05F091AB053097F1F000
S11314909091D3058091D2059817C0F090E0292F40
S11314A030E02617370754F4DE01A20FB31F4C9126
S11314B0D901AC52BA4F4C939F5FF1CF1092D30530
S11314C06093D205CB01DF91CF910994DF91CF9145
S11314D00895E091AC05F091AD05309729F0109294
S11314E0B0051092AF0509940895CF92DF92EF9260
S11314F0FF920F931F93CF93DF937C01CB018A015B
S11315002091AE05222389F0EB016B01C40ED51E98
S1131510CC15DD0569F06991D701ED91FC9101903D
S1131520F081E02DC7010995F3CF642F0E94430B8E
S1131530C801DF91CF911F910F91FF90EF90DF9041
S1131540CF900895CF93DF931F92CDB7DEB7698311
S11315502091AE052223D1F02091AF05203240F036
S113156021E030E0FC013383228380E090E015C069
S11315708091B005E82FF0E0EF54FA4F9981908301
S11315808F5F8093B0058093AF0505C061E0CE0105
S113159001960E94430B81E090E00F90DF91CF9180
S11315A00895FC011382128288EE93E0A0E0B0E07B
S11315B084839583A683B7838EE792E091838083A7
S11315C008951092D3051092D2051092B00510928E
S11315D0AF050E94180B89E69AE00E94700B8FE316
S11315E09AE00C946B0B81E08093AE056093D10577
S11315F01092B0051092AF0508950F93062F21E0C5
S11316004091AF0561EB75E08091D1050E94910B8B
S11316101092B0051092AF051092AE050F91089587
S113162061E00C94FD0A8EE995E00C94D10A0895CA
S11316301092670681E0809365061092640661E06B
S113164082E10E940F0E61E083E10E940F0EE9EB3C
S1131650F0E080818E7F808380818D7F808388E429
S11316608093B80085E48093BC000895ECEBF0E02F
S113167080818A7B808360E082E10E940F0E60E0BB
S113168083E10C940F0E40911606262F30E0240FB0
S1131690311D21323105DCF4209167062430C9F470
S11316A0FC0180E090E0861758F4309116062191F1
S11316B0DC01A85EB94FA30FB11D2C930196F3CFA3
S11316C080911606680F6093160680E0089581E005
S11316D0089582E0089590935B0680935A060895D6
S11316E090935D0680935C06089585EC8093BC001E
S11316F0109267060895CF93DF9391E090935F066D
S1131700882361F0C091B800D091BA000E94360BD2
S11317100E94180BD093BA00C093B800DF91CF9108
S113172008954F925F926F927F928F929F92AF92A1
S1131730BF92CF92DF92EF92FF920F931F93CF93BA
S1131740DF93413208F0C6C0122FF42ED72EE62EB6
S1131750D82F0E9459034B015C01C0916706CC232A
S113176011F18091600690916106A0916206B0919A
S11317706306892B8A2B8B2B81F30E94590340909B
S11317806006509061066090620670906306DC010A
S1131790CB0188199909AA09BB09481659066A0692
S11317A07B06D8F683C082E08093670600936506C3
S11317B08FEF8093F40510923906F09238069E2D2F
S11317C0AAE3B6E0EE2DFD2D8E2F891B8F1518F49C
S11317D081918D93F9CF1092660690916606DD0F84
S11317E0D92BD093660680916406813089F51092D6
S11317F064060E9459036B017C0180916606809304
S1131800BB008091600690916106A0916206B09140
S11318106306892B8A2B8B2BA9F00E945903809095
S1131820600690906106A0906206B0906306DC01A9
S1131830CB018C199D09AE09BF0988169906AA0621
S1131840BB06A0F18091BC0083FDD7CF85EC01C01D
S113185085EE8093BC000E9459036B017C01112327
S113186059F180916706823039F580916006909134
S11318706106A0916206B0916306892B8A2B8B2B9B
S113188071F30E9459038090600690906106A090C5
S11318906206B0906306DC01CB018C199D09AE0988
S11318A0BF0988169906AA06BB06C8F680915E068B
S11318B00E947B0BC5E013C08091F4058F3F79F043
S11318C08091F405803241F08091F405803331F049
S11318D0C4E005C0C1E003C0C2E001C0C3E08C2F76
S11318E0DF91CF911F910F91FF90EF90DF90CF90F8
S11318F0BF90AF909F908F907F906F905F904F902C
S1131900089585ED8093BC008091600690916106F6
S1131910A0916206B09163060796A11DB11D23E054
S1131920B695A795979587952A95D1F72091BC00F0
S113193024FF1CC0409160065091610660916206CC
S113194070916306452B462B472B81F30097A10525
S1131950B10541F02AE22A95F1F700C00197A109E7
S1131960B109E4CF80915E060C947B0B109267065C
S113197008951F920F920FB60F9211242F933F9345
S11319804F935F936F937F938F939F93AF93BF9383
S1131990EF93FF938091B900887F803609F49EC04D
S11319A078F5883209F45DC090F4803109F456C0AA
S11319B038F4882309F4F5C0883009F44FC0F5C021
S11319C0883109F44EC0803209F45FC0EEC080341F
S11319D009F46AC058F4803309F457C0883309F015
S11319E0E4C08093F4050E94750BDFC0803509F4D0
S11319F04FC0883509F45DC0883409F0D6C0D3C01F
S1131A00883909F4C4C0A8F4883709F467C038F4E5
S1131A10883609F463C0803709F460C0C6C08838CA
S1131A2009F4B5C0803909F45FC0803809F0BDC03D
S1131A305BC0803B09F483C038F4803A09F466C083
S1131A40883A09F47CC0B1C0803C09F4A4C0883C45
S1131A5009F4A1C0883B09F487C0A7C08091660639
S1131A6010C09091390680913806981770F5E0916E
S1131A70390681E08E0F80933906F0E0E65CF94F79
S1131A8080818093BB0085EC83C08093F4058BC078
S1131A90E091390681E08E0F809339068091BB0076
S1131AA0F0E0E65CF94F8083909139068091380626
S1131AB06BC0E091390681E08E0F809339068091E6
S1131AC0BB00F0E0E65CF94F8083809165068111EC
S1131AD06AC081E08093640684EA5EC083E08093F8
S1131AE067061092F505CFCF8091F505803208F096
S1131AF04EC0E091F50581E08E0F8093F50580914D
S1131B00BB00F0E0EA50FA4F8083BDCF0E94750B12
S1131B108091F505803230F4E091F505F0E0EA506B
S1131B20FA4F10826091F50570E0E0915A06F09149
S1131B305B0686EF95E009951092F50536C084E0C2
S1131B40809367061092170610921606E0915C06C1
S1131B50F0915D06099580911606811105C081E01A
S1131B608093160610921806E091170681E08E0FF6
S1131B7080931706F0E0E85EF94F80818093BB0004
S1131B809091170680911606981708F47CCF85E883
S1131B908093BC000AC085EC8093BC001092670659
S1131BA004C01092F4050E94810CFF91EF91BF9143
S1131BB0AF919F918F917F916F915F914F913F91E1
S1131BC02F910F900FBE0F901F901895833081F0C6
S1131BD028F4813099F08230A1F008958730A9F07B
S1131BE08830B9F08430D1F4809180008F7D03C0B7
S1131BF0809180008F7780938000089584B58F77DB
S1131C0002C084B58F7D84BD08958091B0008F7724
S1131C1003C08091B0008F7D8093B00008951F931E
S1131C20CF93DF93282F30E0F901E859FF4F8491D7
S1131C30F901E458FF4FD491F901E057FF4FC491E3
S1131C40CC23C1F0162F81110E94E60DEC2FF0E099
S1131C50EE0FFF1FEC55FF4FA591B4919FB7F89479
S1131C60111104C08C91D095D82302C0EC91DE2BC5
S1131C70DC939FBFDF91CF911F910895A1E21A2EAB
S1131C80AA1BBB1BFD010DC0AA1FBB1FEE1FFF1F1C
S1131C90A217B307E407F50720F0A21BB30BE40B6C
S1131CA0F50B661F771F881F991F1A9469F76095B3
S1131CB07095809590959B01AC01BD01CF0108956D
S1131CC0EE0FFF1F0590F491E02D0994F894FFCFD7
S1131CD01F010101000000001010101F000000008F
S1131CE01F10101F000000001F011F101F00000024
S1131CF01F11111F000000000A0E0A0E0000000050
S1131D0004040A11000000000E1B111B0E00000049
S1131D101F040A1100000000041F040A110000003F
S1131D201F010F01010000001F101F101F00000001
S1131D301F0A0A1F00000000041F040A0400000018
S1131D401F050505000000001F14141F00000000FB
S1131D50151F151F000000000A0A151500000000D9
S1131D601F0A1515000000000000000000041F00F9
S1131D7000000000000A1F000000000000001F0413
S1131D800000000000001F0A0010101018101000BE
S1131D90001010181018100000080808180808008F
S1131DA0000808180818080000101010101010007F
S1131DB0001414141C1414000014141C141C140017
S1131DC0000A0A0A1A0A0A00000A0A1A0A1A0A0067
S1131DD0080C0D1112030506090A0B0C0D0E0F1247
S1131DE014000040001400540048656C6C6F2053CC
S1131DF0746576652100536574757020636F6D702A
S1131E006C65746500426F74746F6D20726F770037
S1131E104C6F6F702072756E6E696E670000000003
S1131E20004101B80202018E01D400EE00E0000D71
S1131E300A006E616E00696E66006F7666000000CF
S1131E400000A709B8021502180200000000A20A47
S10F1E50750A15023E0A130A1B0A2F0A29
S9030000FC
